:1000000000308A001A2B00006400322809000034F6
:06002A0010100C10D13093
:100030008F0027308E00A601A701A50183160113AA
:1000400083128B100B1600340B128B1010100C1037
:100050002D08A9002E08AA002F08AB003008AC001C
:10006000251400340B1E852A8B1C852A8B1000302A
:100070008316011B0130013A8312A1002118442884
:100080008316011346288312831601172730831223
:100090000E02B1000F08B200D130031CD230B20200
:1000A000D1308F0027308E0010142608F43E03183C
:1000B000852A0C3E922A0130A600852A3208B40017
:1000C0003108B30034081B3C03187B28FF3A031D9A
:1000D0006D283308203C03187B2834082A3C031C75
:1000E0007B28031D772833082F3C031C7B28023014
:1000F000A6002515852A3408063C03189428FF3AE3
:10010000031D86283308803C0318942834080B3CD0
:10011000031C9428031D902833083F3C031C94289B
:100120000230A600A515852A3408023C0318AD2824
:10013000FF3A031D9F2833082A3C0318AD283408D2
:10014000033C031CAD28031DA9283308D33C031C22
:10015000AD280230A6002516852A1520852A3208EA
:10016000B4003108B30034080D3C0318CF28FF3A1F
:10017000031DBE283308103C0318CF283408153C53
:10018000031CCF28031DC8283308173C031CCF28A5
:10019000251DCF280330A600A701A801852A340811
:1001A000003C0318EB28FF3A031DDA283308E03C33
:1001B0000318EB283408023C031CEB28031DE42839
:1001C0003308CF3C031CEB28A51DEB280730A60005
:1001D000A701A801852A3408023C03180729FF3A21
:1001E000031DF62833082A3C031807293408033C6A
:1001F000031C0729031D00293308D33C031C0729CE
:10020000251E07290930A600A701A801852A152067
:10021000852ABA01A51814293208B6003108B5009C
:10022000A5140130BA004F29A5103108B5073208CE
:100230000318320FB607A70A3608023C03183529FF
:10024000FF3A031D27293508483C0318352936088D
:10025000053C031C3529031D31293508773C031C57
:1002600035290310A80C0130BA003608053C0318E4
:100270004F29FF3A031D40293508903C03184F29A8
:1002800036080A3C031C4F29031D4A293508EF3C58
:10029000031C4F290310A80CA8170130BA00270827
:1002A000073C03186229033026022D3E84002808EB
:1002B0008000A701A801A60A2608063C03186229A7
:1002C0000B30A6003A08A100A10803191520852AC1
:1002D000BA01A51873293208B6003108B500A51473
:1002E0000130BA00AE29A5103108B507320803184D
:1002F000320FB607A70A3608023C03189429FF3AC2
:10030000031D86293508C03C031894293608053C8E
:10031000031C9429031D90293508953C031C94293E
:100320000310A80C0130BA003608043C0318AE29AB
:10033000FF3A031D9F293508AA3C0318AE29360849
:10034000083C031CAE29031DA92935086F3C031C7A
:10035000AE290310A80CA8170130BA002608073CE4
:10036000031DBF292708063C0318BE290310280CCB
:10037000AD00AE01A701A8010830A600CE292708CC
:10038000043C0318CE29280CAF00AF0CAF0C1F3073
:10039000AF05B001A701A8010B30A6003A08A100E3
:1003A000A10803191520852ABA01A518242AA51425
:1003B0003208B6003108B5003608023C0318022A9C
:1003C000FF3A031DE72935082A3C0318022A36089C
:1003D000033C031C022A031DF1293508D33C031CEE
:1003E000022AA708031DF8290130A800A700002A47
:1003F000A70A0310A80D28080239023C0319281483
:100400000130BA003608053C0318232AFF3A031DC1
:100410000D2A3508403C0318232A3608073C031CE4
:10042000232A031D172A3508A73C031C232AA708E3
:10043000031D1E2A0230A800A700212AA70A0310C4
:10044000A80D0130BA005B2AA5103208B6003108A9
:10045000B5003608023C0318402AFF3A031D342A2F
:1004600035082A3C0318402A3608033C031C402A5E
:10047000031D3E2A3508D33C031C402A0130BA0034
:100480003608053C03185B2AFF3A031D4B2A350842
:10049000403C03185B2A3608073C031C5B2A031DFB
:1004A000552A3508A73C031C5B2AA70A0310A80D90
:1004B00028140130BA002608093C031D6A2A2708BF
:1004C000063C0318692A28081F39AD00AE010A301E
:1004D000A600762A27080C3C0318762A28083F39FC
:1004E000AF00B001A701A8010B30A6003A08A10097
:1004F000A108031D7D2A1520822A26080B3C031D16
:10050000822A2420852A2420852A83160C1C902ADE
:1005100083120C188D2A8316902A0C10152083162E
:10052000831206280A108A140A1182075B285E28A3
:10053000AF28092909290929092968296829D429FD
:10054000D429832A0730990083169F01FF30831234
:100550008500831685009501FE3095008113C0301B
:100560008105011583120B118B1200000330A000CE
:10057000A00BB82ABB2AC3308100203090000C1099
:1005800083160C14D13083128F0027308E0083160F
:100590000510831205108316051564008312372B8E
:1005A000B801370838020318ED2A64000A30B90090
:1005B0003930840000080319EB2A0530A100A0019E
:1005C000A00BE02AA10BDF2A2E30A000A00BE62A08
:1005D000E92A800BDD2AB80AD12A0034A5012514A6
:1005E000A6013B2B05148130A000A00BF52AA70122
:1005F0002708073C031C142B3708A0002708A1007C
:100600000319062B0310A00CA10B022B20080139A3
:10061000013C031D0D2B05100E2B05148130A0008D
:10062000A00B102BA70AF82A05108130A000A00B00
:10063000172B003484011F3083051F1383161F10EE
:100640009F101F119F110730831299004F30A9008E
:100650004B30AA004F30AB004B30AC000130AD0046
:100660000230AE000330AF000430B000A22A643084
:10067000B700D022EE2A0B178B176400251C542BD1
:100680000B138B132908B700F2222A08B700F222B5
:100690002B08B700F2222C08B700F2223230B70044
:0C06A000D02215200B178B173D2B630098
:02400E00CA31B5
:00000001FF
;PIC12F675
